:100000000C947C060C94C3060C94C3060C94C30693
:100010000C94C3060C94C3060C94C3060C94C3063C
:100020000C94C3060C94C3060C94C4210C94972220
:100030000C94D2180C94C3060C94C3060C94C306FB
:100040000C94C3060C94C3060C94C3060C94C3060C
:100050000C94C3060C9433190C94C3060C94C30679
:100060000C94C3060C94C3060C94C3060C94C306EC
:100070000C94C3060C94C3060C94C3060C94C306DC
:100080000C94C3060C94C3060C94C3060C94C306CC
:100090000C94C3060C94C3060C94C3060C94C306BC
:1000A0000C94C3060C94C3060C94C30629003A00B2
:1000B0003B003C003D003E003F004000410042004C
:1000C000430044004500B200380025022D000070B6
:1000D0001400090018001C001D001B000E00060083
:1000E0001A0005004C002A002400250026002E02DC
:1000F0002B0012000B00080004000C000700150084
:1001000017001100160028002100220023002602FB
:100110000000E1003600100037000D0033000A0037
:100120000F0013001900015102511E001F00200092
:1001300027020000E0007600E300E2002C002C0023
:10014000E600E7007600E400270037002800000002
:10015000000000000000010001000100010001009A
:100160000100010001000100010001000100010087
:100170000100010001000100010034022D022F00E6
:10018000300023021E02360237022E002402010034
:1001900001000100010001000100010038002D00F4
:1001A0002F023002250238022602270234003302D1
:1001B0000100010001000100010000000100200217
:1001C00021023102350235002E02220231001F02C7
:1001D0000100010001000100010001000000010018
:1001E0000100010001000100010001000100010007
:1001F00001000100010001000000000000000000FB
:1002000000000000000000000000000000000000EE
:1002100000000000000000000000010001000100DB
:10022000010001004B002A0052004C004E0000006B
:100230001E001F002000000000000000010001005F
:100240000100010001004A00500051004F004D0024
:100250000000210022002300000001000100010035
:10026000010001000000010000000000000000008B
:10027000000000002400250026000100010001000C
:100280000100010001000000010001000100010067
:100290000100010001000100010001000100010056
:1002A000010000000000000000000100010001004A
:1002B0000100010001000100010001000100010036
:1002C0000100010001000100010001000100010026
:1002D0000100010001000100010001000100010016
:1002E0000100010001000100010001000100010006
:1002F00001000100010001000100010001000100F6
:1003000001000100010001000100010001000000E6
:1003100001000100010001000100010001000100D5
:1003200001000100010001000100010001000100C5
:1003300000000100010001000100010001000100B6
:1003400001000100010001000100010000000000A7
:100350000000000001000100010001000100010097
:100360000100010001000100010001000100010085
:100370000100010001000100010001000100010075
:100380000100010001000100010001000100010065
:100390000100010001000100010001000100010055
:1003A0000100010001000100010001000100010045
:1003B0000100010001000100000001000100010036
:1003C0000100010001000100010001000100010025
:1003D0000100010001000100010000000100010016
:1003E0000100010001000100010001000100010005
:1003F00001000100010000000000000000000100F9
:1004000001000100010001000100010001000100E4
:1004100001000100010001000100010001000100D4
:1004200001000100010001000100010001000100C4
:1004300001000100010001000100010001000100B4
:1004400001000100010001000100010001000100A4
:100450000100010001000100010001000100010094
:100460000100000001000100010001000100010085
:100470000100010001000100010001000100010074
:100480000100010000000100010001000100010065
:100490000100010001000100010001000100010054
:1004A0000000000000000000010001000100010048
:1004B0000100010001000100010001000100010034
:1004C0000100010001000100010001000100010024
:1004D0000100010001000100010001000100010014
:1004E0000100010001000100010001000100010004
:1004F00001000100010001000100010001000100F4
:1005000001000100010001000100010000000100E4
:1005100001000100010001000100010001000100D3
:1005200001000100010001000100010001000000C4
:1005300001000100010001000100010001000100B3
:1005400001000100010001000100000000000000A6
:100550000000010001000100010001000100010094
:100560000100010001000100010001000100010083
:100570000100010001000100010001000100010073
:100580000100010001000100010001000100010063
:100590000100010001000100010001000100010053
:1005A0000100010001000100010001000100010043
:1005B0000100010001000000010001000100010034
:1005C0000100010001000100010001000100010023
:1005D0000100010001000100000001000100010014
:1005E0000100010001000100010001000100010003
:1005F00001000100000000000000000001000100F7
:1006000001000100010001000100010001000100E2
:1006100001000100010001000100010001000100D2
:1006200001000100010001000100010001000100C2
:1006300001000100010001000100010001000100B2
:1006400001000100010001000100010001000100A2
:100650000100010001000100010001000100010092
:100660000000010001000100010001000100010083
:100670000100010001000100010001000100010072
:100680000100000001000100010001000100010063
:100690000100010001000100010001000100000053
:1006A0000000000000000100010001000100010045
:1006B0000100010001000100010001000100010032
:1006C0000100010001000100010001000100010022
:1006D0000100010001000100010001000100010012
:1006E0000100010001000100010001000100010002
:1006F00001000100010001000100010001000100F2
:1007000001000100010001000100000001000100E2
:1007100001000100010001000100010001000100D1
:1007200001000100010001000100010000000100C2
:1007300001000100010001000100010001000100B1
:1007400001000100010001000000000000000000A5
:100750000100010001000100010001000100010091
:100760000100010001000100010001000100010081
:100770000100010001000100010001000100010071
:100780000100010001000100010001000100010061
:100790000100010001000100010001000100010051
:1007A0000100010001000100010001000100010041
:1007B0000100010000000100010001000100010032
:1007C0000100010001000100010001000100010021
:1007D0000100010001000000010001000100010012
:1007E0000100010001000100010001000100010001
:1007F00001000000000000000000010001000100F5
:1008000001000100010001000100010001000100E0
:1008100001000100010001000100010001000100D0
:1008200001000100010001000100010001000100C0
:1008300001000100010001000100010001000100B0
:1008400001000100010001000100010001000100A0
:100850000100010001000100010001000100000091
:100860000100010001000100010001000100010080
:100870000100010001000100010001000100010070
:100880000000010001000100010001000100010061
:100890000100010001000100010001000000000052
:1008A0000000000001000100010001000100010042
:1008B0000100010001000100010001000100010030
:1008C0000100010001000100010001000100010020
:1008D0000100010001000100010001000100010010
:1008E0000100010001000100010001000100010000
:1008F00001000100010001000100010001000100F0
:1009000001000100010001000000010001000100E0
:1009100001000100010001000100010001000100CF
:1009200001000100010001000100000001000100C0
:1009300001000100010001000100010001000100AF
:1009400001000100010000000000000000000100A3
:10095000010001000100010001000100010001008F
:10096000010001000100010001000100010001007F
:10097000010001000100010001000100010001006F
:10098000010001000100010001000100010001005F
:10099000010001000100010001000100010001004F
:1009A000010001000100010001000100010001003F
:1009B0000100000001000100010001000100010030
:1009C000010001000100010001000100010001001F
:1009D0000100010000000100010001000100010010
:1009E00001000100010001000100010001000100FF
:1009F00000000000000000000100010001000100F3
:100A000001000100010001000100010001000100DE
:100A100001000100010001000100010001000100CE
:100A200001000100010001000100010001000100BE
:100A300001000100010001000100010001000100AE
:100A4000010001000100010001000100010001009E
:100A5000010001000100010001000100000001008F
:100A6000010001000100010001000100010001007E
:100A7000010001000100010001000100010000006F
:100A8000010001000100010001000100010001005E
:100A90000100010001000100010000000000000051
:100AA000000001000100010001000100010001003F
:100AB000010001000100010001000100010001002E
:100AC000010001000100010001000100010001001E
:100AD000010001000100010001000100010001000E
:100AE00001000100010001000100010001000100FE
:100AF00001000100010001000100010001000100EE
:100B000001000100010000000100010001000100DE
:100B100001000100010001000100010001000100CD
:100B200001000100010001000000010001000100BE
:100B300001000100010001000100010001000100AD
:100B400001000100000000000000000012036B0023
:100B50006500790062006F006100720064000000AF
:100B6000160371006D006B006200750069006C0077
:100B700064006500720000000403090409026D00AE
:100B8000040100A0FA090400000103010100092189
:100B9000110100012240000705810308000A090431
:100BA00001000103010200092111010001224D0091
:100BB0000705820308000A0904020001030000007F
:100BC0000921110100012236000705830308000AEC
:100BD00009040300010300000009211101000122A2
:100BE00039000705840320000112011001000000F4
:100BF00008EDFE606001000102000105010906A187
:100C000001050719E029E7150025019508750181FF
:100C100002050819012905950575019102950175CF
:100C20000391010507190029F71500250195F875AD
:100C3000018102C005010980A1018502160100267B
:100C400003001A81002A8300751095018100C005F8
:100C50000C0901A1018503160100269C021A01005E
:100C60002A9C02751095018100C005010902A101AD
:100C70000901A1000509190129051500250195059E
:100C80007501810295017503810105010930093162
:100C90001581257F95027508810609381581257F04
:100CA000950175088106050C0A38021581257F9586
:100CB0000175088106C0C005010906A101050719D3
:100CC000E029E71500250195087501810295017558
:100CD00008810105081901290595057501910295FD
:100CE00001750391010507190029FF150026FF0072
:100CF000950675088100C00011241FBECFEFDAE011
:100D0000DEBFCDBF04B603FE27C080917302909171
:100D10007402A0917502B09176028730904BA74083
:100D2000B04BD1F4109273021092740210927502BB
:100D30001092760214BE84B7877F84BF0FB6F894F2
:100D4000A895809160008861809360001092600097
:100D50000FBEE0E0F8E3099511E0A0E0B1E0E8E0C3
:100D6000FCE402C005900D92AE33B107D9F722E042
:100D7000AEE3B1E001C01D92A337B207E1F70E94D4
:100D80001A1F0C94D6250C94000090E080E0089582
:100D90000895089581E0089581FF03C06E9A7698C2
:100DA00008956E98FCCF81E008950C94CA060E94C5
:100DB00013112FEF84E39CE0215080409040E1F735
:100DC00000C000000C945619EF92FF920F931F93EE
:100DD000CF93DF938C01FC01E080F180809196013C
:100DE000811140C082818823C1F1C7010E949816F9
:100DF000C82F682FC7010E944116B7018C2F0E948F
:100E00001C08EC01B8010E94D506882309F44BC0E8
:100E1000B801CE010E94250A882309F444C0C531D7
:100E2000F0E7DF0720F5C23080E7D80708F04DC0B3
:100E3000C115E0E7DE0791F1C130D047E1F181E073
:100E40008093400180934101C801DF91CF911F91B0
:100E50000F91FF90EF900C94D306C7010E946F167C
:100E6000C82FCBCFC7010E949816B701C8CFCC338B
:100E700080E7D80709F49BC0CD33D04701F7F801CC
:100E80008281882309F4BAC0109241010E9402199C
:100E900090933F0180933E0180E296C0F8018281E9
:100EA00081110E94D70680E0DF91CF911F910F91B1
:100EB000FF90EF900895F80182818823A1F380913B
:100EC0003302816080933302EECFF8018281882360
:100ED00009F4BACF0E945318811102C00E94391838
:100EE0000E94701890E09093650280936402FE0166
:100EF000E350F047809164028160E231F10538F4FB
:100F0000E852FA4D0C9486258091640282608093A9
:100F10006402809164020E9474180E941311C3CF6E
:100F2000809164028460F3CF809164028860EFCF87
:100F3000809164028061EBCF809164028062E7CF90
:100F4000809164028064E3CF809164028068DFCF87
:100F5000809164028C60DBCF809164028E7FD7CF5A
:100F6000809164028D7FD3CF809164028B7FCFCF3D
:100F700080916402877FCBCF809164028F7EC7CF40
:100F8000809164028F7DC3CF809164028F7BBFCF3D
:100F9000809164028F77BBCF80916402837FB7CF4B
:100FA00090916402892F97FB87F98058B0CFF801A0
:100FB0008281882361F0109240010E94021990936F
:100FC0003F0180933E0182E00E94780E6CCF8091B9
:100FD000400181110FC080913E0190913F010E941C
:100FE0000E19883C910530F486E20E944D0D86E290
:100FF0000E94290E82E00E947F0E55CF8091410110
:1010000081110FC080913E0190913F010E940E1905
:10101000883C910530F487E20E944D0D87E20E94E2
:10102000290E80E2E8CF0C94740A0C94760A0C9492
:10103000CC060C9417080895972F70E021E1929F39
:10104000600D711D1124FB0195E5899FE00DF11DD7
:101050001124EE0FFF1FE455FF4F859194910895E1
:10106000FC01EE0FFF1FE45BF44F8591949108950E
:101070000E941C080E94A9099C01811540E4940764
:1010800008F097C0211580E3380708F0FAC0203E29
:10109000310508F074C0203C310508F0E5C0283A5D
:1010A000310588F4253A310508F0E2C021303105D8
:1010B00009F477C0C9010497813A910508F471C019
:1010C00030E020E06EC0C901885A91094597C0F709
:1010D000283A310509F4FEC0293A310509F4FDC06A
:1010E0002A3A310509F4FCC02B3A310509F4FBC05A
:1010F0002C3A310509F4FAC02B3B310509F4F9C04B
:101100002C3B310509F4F8C02D3A310509F4F7C03C
:10111000203B310509F4F6C02E3A310509F4F5C03B
:101120002F3A310509F4F4C0213B310509F4F3C02D
:10113000223B310509F4F2C0233B310509F4F1C02B
:10114000243B310509F4F0C0253B310509F4EFC01B
:10115000263B310509F4EEC0273B310509F4EDC00B
:10116000283B310509F4ECC0293B310509F4EBC0FB
:101170002A3B310509F4EAC020E034E412C021150D
:1011800090E2390780F42F3F310509F050F4283EF2
:10119000310538F0C901805F91093065409708F04A
:1011A0008FCFC9010895C9019F700E9430089C012A
:1011B000F8CF8115944508F041C0211583E5380723
:1011C00008F06AC0211592E5390738F5211541E587
:1011D000340708F05CC0211580E5380708F454C0D6
:1011E000C90134E0969587953A95E1F78370422FCF
:1011F00046954695437090E2499FA0011124582BD3
:10120000822F837021E030E002C0220F331F8A95C5
:10121000E2F7242B352B3C68C4CFC9018370992792
:1012200041E050E002C0440F551F8A95E2F7269531
:10123000269580E2289F90011124EBCF211596E599
:10124000390748F4922F882721153545C8F59C01A8
:10125000246F306AA6CFC90190563F708115904126
:1012600008F02ECF30629DCFC901805C91099DCFDF
:10127000253A310549F1263A310549F522E830E4AD
:1012800090CF3327306C8DCF3F70306A8ACF322FAA
:101290002227216F306A85CFC9018370992741E0E9
:1012A00050E002C0440F551F8A95E2F72695269517
:1012B00080E2289F90011124242B352B3A6871CFAE
:1012C00088279F719C01CECF21E830E46ACF23E8C4
:1012D00030E467CF22EE34E464CF29EE34E461CF0A
:1012E0002AEE34E45ECF25EB34E45BCF26EB34E426
:1012F00058CF23EB34E455CF24EB34E452CF27EB23
:1013000034E44FCF2CEC34E44CCF2DEC34E449CF13
:1013100023E835E446CF2AE835E443CF22E935E433
:1013200040CF24E935E43DCF21E236E43ACF23E251
:1013300036E437CF24E236E434CF25E236E431CF49
:1013400026E236E42ECF27E236E42BCF2AE236E43B
:1013500028CF803E910581F1C8F48133910509F4CD
:1013600062C048F48932910509F456C08A32910569
:1013700009F460C0089589339105B9F08238910568
:10138000A1F08533910509F440C00895863E91058A
:1013900061F138F4823E9105B1F0833E9105E1F0B0
:1013A0000895873E910551F10895209164022370BC
:1013B000D9F080EE90E008952091640220FF14C0DF
:1013C00089E390E008952091640222FF0DC024FD7E
:1013D00009C083EE90E008952091640222FD31C09F
:1013E00024FF02C090E080E008952091640223FF72
:1013F000FBCF24FDF7CF87EE90E0089520916402A3
:1014000023FFEECF86EE90E008952091640225FF41
:10141000EBCF89E290E008952091640225FFE4CFAC
:1014200085E390E008952091640226FFDDCF8AE2F3
:1014300090E008952091640226FFD6CF81E390E0EA
:10144000089582EE90E0089508950F931F93CF932F
:101450008C01FB018281811106C0C1E08C2FCF91EC
:101460001F910F910895C0914F01C11125C0053101
:10147000104799F70E94240A81E080934F010E944F
:10148000021990934E0180934D01109242011092E7
:1014900044011092430110924601109245011092AE
:1014A00048011092470110924A011092490110928E
:1014B0004C0110924B01D2CF80914D0190914E0181
:1014C0000E940E19883C910540F680914201E82F58
:1014D000F0E0EE0FFF1FED5BFE4F118300838F5F87
:1014E00080934201C0E0BACF0C94C8060C94C906A0
:1014F00085B7806885BF85B7806885BFA3E1B1E007
:1015000061E070E08D91E82FE295EF70F0E041A18D
:101510008F709B0101C0220F8A95EAF7922F909558
:10152000942391A382A1822B82A381E0A432B807E5
:1015300049F7A4E2B1E061E070E08D91E82FE29517
:10154000EF70F0E041A18F709B0101C0220F8A95DE
:10155000EAF7922F9095942391A382A1822B82A3E4
:1015600081E0A932B80749F7E4E6F1E0A0E5B1E08F
:1015700088E791E011921192119211921D921D92A1
:101580001D921D928E179F07A9F70C9413082F9296
:101590003F924F925F926F927F928F929F92AF9203
:1015A000BF92CF92DF92EF92FF920F931F93CF9350
:1015B000DF93CDB7DEB72E970FB6F894DEBF0FBE20
:1015C000CDBF23E131E03E832D8318861F82AD819C
:1015D000BE818D91BE83AD83E82FE295EF702E2FF3
:1015E00030E03E872D87D90191969C9191978F701D
:1015F000E1E0F0E002C0EE0FFF1F8A95E2F7FA8308
:10160000E9838E2F892B91968C93919792968C914A
:101610009297CE2EC0948C2192968C93F0EAFA95F4
:10162000F1F741E050E060E070E00F8004C0440F4B
:10163000551F661F771F0A94D2F74A015B018094F9
:101640009094A094B09480E5282E81E0382E24E276
:1016500031E03C832B837101D12CF7018191919171
:10166000A191B1917F0189879A87AB87BC87AB81B4
:10167000BC817D90BC83AB83272D22952F7030E0F9
:10168000F90100A110E0272D2F7002C015950795D4
:101690002A95E2F797012450310949845A846B84D2
:1016A0007C8400FD82C0442A552A662A772AD90103
:1016B0004D925D926D927C921397D9010D911D917F
:1016C0002D913C9189859A85AB85BC8580179107C2
:1016D000A207B30711F0DD24D39494E6E91691E054
:1016E000F90609F0BACFAD85BE8591968C91919798
:1016F000C8229196CC92919792968C91B9818B2B1E
:10170000ED85FE8582A3DD2049F0F1E0F0937801BC
:101710000E94021990937A01809379012F81388574
:101720002F5F3F4F38872F832131310509F04FCF8D
:10173000809178018823E9F08091790190917A0174
:101740000E940E190697A8F024E631E0F10181917C
:101750009191A191B1911F01F90181939193A1936D
:10176000B1939F01F4E62F16F1E03F0679F710924E
:1017700078010E94150881E02E960FB6F894DEBF1E
:101780000FBECDBFDF91CF911F910F91FF90EF90D2
:10179000DF90CF90BF90AF909F908F907F906F9091
:1017A0005F904F903F902F900895482059206A20D5
:1017B0007B20F90140825182628273827ECFCF9377
:1017C000DF9300D000D0CDB7DEB794E0899FF00161
:1017D0001124EC59FE4F80819181A281B381BC011B
:1017E000CD010F900F900F900F90DF91CF91089542
:1017F00008959093800180937F010895E0917F0187
:10180000F0918001309721F00190F081E02D099452
:1018100080E00895E0917F01F0918001309721F000
:101820000280F381E02D09940895E0917F01F09109
:101830008001309721F00480F581E02D099408950E
:1018400020917D0130917E012817390771F0909326
:101850007E0180937D01E0917F01F09180013097BE
:1018600021F00680F781E02D0994089520917B01F5
:1018700030917C012817390771F090937C01809397
:101880007B01E0917F01F0918001309721F000848D
:10189000F185E02D0994089508950C944C0C0E9454
:1018A000F9180E94780A0C94C2194F925F926F92B5
:1018B0007F929F92AF92BF92CF92DF92EF92FF9270
:1018C0000F931F93CF93DF9300D000D00F92CDB72B
:1018D000DEB70E94C70A22E8A22E21E0B22E10E055
:1018E00000E0902E802F0E94DF0B6B017C01F50140
:1018F00041905190619071905F014C145D046E04B1
:101900007F0409F475C08091330281FD0E94F80BB9
:1019100090E080E04C245D246E247F24B301A2017A
:10192000082E04C076956795579547950A94D2F787
:1019300040FF59C089839A82412C512C3201439433
:1019400004C0440C551C661C771C8A95D2F7C42031
:10195000D520E620F72081E0CD28CE28CF2809F435
:1019600080E08B830E9402198160782F9D838C8395
:1019700049815A816B818D810E94240D000F111FB6
:10198000000F111FF801EE57FE4F80819181A28157
:10199000B38184259525A625B72580839183A283CD
:1019A000B3830E946F1C0E94FE0B909181018917E6
:1019B000B1F10E94FE0B809381010F900F900F9068
:1019C0000F900F90DF91CF911F910F91FF90EF90AB
:1019D000DF90CF90BF90AF909F907F906F905F907F
:1019E0004F900C94190801968131910509F096CF1A
:1019F0000F5F1F4F0530110509F073CF8FEF8983FB
:101A00008A831B820E9402198160782F9D838C83B8
:101A100049815A816B818D810E94240DC2CF0F9024
:101A20000F900F900F900F90DF91CF911F910F911A
:101A3000FF90EF90DF90CF90BF90AF909F907F90FE
:101A40006F905F904F900895CF93DF93CDB7DEB73F
:101A50002B970FB6F894DEBF0FBECDBF4F835887CC
:101A600069877A878B871E8285E0FE013796DE01C3
:101A7000119601900D928A95E1F749815A816B8107
:101A80007C818D819E812B960FB6F894DEBF0FBEB0
:101A9000CDBFDF91CF910C949B13882309F4D8C05C
:101AA000823871F40E94FE0B81FDD2C089E30E944E
:101AB00040170E940A1889E30E947D170C940A18A7
:101AC000833859F40E94FE0B80FDC2C083E50E945A
:101AD00040170E940A1883E5EFCF843859F40E941A
:101AE000FE0B82FDB5C087E40E9440170E940A18D1
:101AF00087E4E2CF9CEF980F913A18F40E944017C8
:101B0000DDCF90E2980F983050F4877091E001C0DB
:101B1000990F8A95EAF7892F0E94C117CFCF9BE5CD
:101B2000980F933070F4853A31F0863A39F083E8B3
:101B300090E00C94200C81E890E0FBCF82E890E0EC
:101B4000F8CF98E5980F953108F082C0883A09F4EB
:101B500040C0893A09F440C08A3A09F440C08B3A3F
:101B600009F440C08C3A09F440C08B3B09F440C0F2
:101B70008C3B09F440C08D3A09F440C0803B09F425
:101B800040C08E3A09F440C08F3A09F440C0813B0E
:101B900009F440C0823B09F440C0833B09F440C0D3
:101BA000843B09F440C0853B09F440C0863B09F4FE
:101BB00040C0873B09F440C0883B09F440C0893BE2
:101BC00009F440C08A3B09F440C090E080E00C94E6
:101BD000360C82EE90E0FBCF89EE90E0F8CF8AEEF3
:101BE00090E0F5CF85EB90E0F2CF86EB90E0EFCF81
:101BF00083EB90E0ECCF84EB90E0E9CF87EB90E0D3
:101C0000E6CF8CEC90E0E3CF8DEC90E0E0CF83E882
:101C100091E0DDCF8AE891E0DACF82E991E0D7CF99
:101C200084E991E0D4CF81E292E0D1CF83E292E0E7
:101C3000CECF84E292E0CBCF85E292E0C8CF86E2BD
:101C400092E0C5CF87E292E0C2CF8AE292E0BFCFB6
:101C50000895882309F44BC0823871F40E94FE0B6A
:101C600081FF45C089E30E9440170E940A1889E35A
:101C70000E947D170C940A18833859F40E94FE0BB9
:101C800080FF35C083E50E9440170E940A1883E553
:101C9000EFCF843859F40E94FE0B82FF28C087E4FE
:101CA0000E9440170E940A1887E4E2CF9CEF980F29
:101CB000913AF0F290E2980F983050F4877091E0EA
:101CC00001C0990F8A95EAF7892F0E94C717D2CFD2
:101CD0009BE5980F933020F490E080E00C94200C6A
:101CE000885A853120F490E080E00C94360C0895F9
:101CF000882321F00E94C1170C940A1808958823A4
:101D000021F00E94C7170C940A1808958F929F9291
:101D1000AF92BF92DF92EF92FF920F931F93CF93F8
:101D2000DF9300D000D00F92CDB7DEB77C016D837A
:101D30007983FC01058102950F70128111110E94B7
:101D4000E0170E943917D82E882371F01123A1F0D3
:101D50008D81805E883080F082E00E9423170E948F
:101D6000391791E0D82ED926E981E295EF70F0E09D
:101D7000E651FA4D0C948625D12CF6CF09810F70CF
:101D8000F981F07F11F00295007F1123B1F000235B
:101D900061F08D81805E883018F02D81211109C09D
:101DA000802F0E94C1170E940A188D810E944D0D3C
:101DB00015C0802F0E94D217F6CF8D810E94290E68
:101DC000002361F08D81805E883018F03D813111F3
:101DD00029C0802F0E94C7170E940A18DD2009F42D
:101DE000D3C10E94161780FDCFC1F70112820E9455
:101DF00010170E945915C7010E94D5100E94101794
:101E00000F900F900F900F900F90DF91CF911F9137
:101E10000F91FF90EF90DF90BF90AF909F908F90C9
:101E20000C947B15802F0E94D817D6CF49814F7014
:101E3000B42E5981507F503219F0B29480EFB822FD
:101E40008D81882369F0813029F1112369F1002304
:101E500059F0F701858180FFA8CF8F70858304C07A
:101E6000112361F0011104C08B2D0E94780EB6CFB2
:101E70008B2D0130D1F70E94F417B0CF011106C0AD
:101E80000E94F7178B2D0E947F0EA8CF013009F416
:101E9000A5CFF6CF112321F0063008F09FCFE4CF75
:101EA000053008F09BCFEECF002361F38D810E94B7
:101EB000290E94CF898186958695837069F081304B
:101EC00009F08CCF8D8199819370111102C090E03F
:101ED00080E00E94360C82CF8D8199819370111120
:101EE00002C090E080E00E94200C78CF8D81112309
:101EF00029F00E947D1B0E94641C70CF0E94E51B8C
:101F0000FACF8981837009F05FC0111167CF2D81ED
:101F1000229526952770220F220F8D818F7090E0D9
:101F2000B0E0A0E04C015D01022E04C0880C991CB9
:101F3000AA1CBB1C0A94D2F7FD8160E070E0CB01C3
:101F4000F4FF0FC06FE070E080E090E004C0660F27
:101F5000771F881F991F2A95D2F7609570958095F5
:101F6000909529812695269523702D832230B1F0F6
:101F7000233019F19B01AC01282939294A295B2911
:101F800029833A834B835C833D8169817A818B818C
:101F90009C813130B1F00E94E61420CF9B01AC014E
:101FA000282939294A295B2929833A834B835C8371
:101FB000CA01B9010E94101511CF0E94E614C50193
:101FC000B4010E94BC140ACF8695112311F08981B7
:101FD0008170882309F402CF2D81229526952770E0
:101FE000220F220F8D818F7090E0B0E0A0E04C01B5
:101FF0005D01022E04C0880C991CAA1CBB1C0A940B
:10200000D2F73D8160E070E0CB0134FF0FC06FE09C
:1020100070E080E090E004C0660F771F881F991F72
:102020002A95D2F76095709580959095498146954F
:10203000469543704D834230B1F0433019F19B0116
:10204000AC01282939294A295B2929833A834B8302
:102050005C833D8169817A818B819C813130B1F0D3
:102060000E94EC15BBCE9B01AC01282939294A29D5
:102070005B2929833A834B835C83CA01B9010E949F
:102080001616ACCE0E94EC15C501B4010E94C21513
:10209000A5CE3D81323F09F447C080F4303F79F14D
:1020A000313FD9F1832F805E8031D0F0112309F4C4
:1020B00056C001117ACE89818F7133C04D81433F63
:1020C000D1F1443F99F7112309F43FC089818F7101
:1020D00089830E94591563E089810E941A177ECE78
:1020E0005D815F705D8389818F71112321F00E9472
:1020F00059158D81BACE0E947B158D81C4CE1123D6
:1021000041F0053008F06ACE89818F710E94A015D8
:1021100065CE063008F062CEF7CF89818F7111232A
:1021200039F00E9459155ACE89818F711123C9F354
:102130000E947B1553CE112329F089818F710E9453
:1021400044154CCE0E943A1549CE81E00E942317D7
:10215000023008F443CE82E00E9423173FCE0111E3
:10216000A5CE89818F71E4CF49814F706D81C70100
:102170000E94C5060E94351431CE49814F706D8191
:10218000C7010E941B082ACE0F900F900F900F904E
:102190000F90DF91CF911F910F91FF90EF90DF9003
:1021A000BF90AF909F908F9008950F931F93CF9300
:1021B000DF93EC018B819C81892B29F088819981A7
:1021C00089238F3F29F4DF91CF911F910F910895BB
:1021D000CE010E94E4068823B1F3688179818A8167
:1021E0000E94E6168C010E9440160E94B114B801AC
:1021F000CE01DF91CF911F910F910C94860E0E941A
:10220000E0170E94F1170E94B3170E940A180E945B
:10221000551D0E94641C90E080E00E94200C90E01C
:1022200080E00C94360C0E94CF170C94FF100E9493
:10223000DA16282F892F82958F70903C80F48A308F
:10224000B0F4843020F4823090F480E00895863039
:10225000E1F781E0203E88F0213FB9F70EC08C30D5
:1022600011F08F3091F793FB882780F9089581E072
:10227000203F39F018F4203E40F70895243F29F715
:10228000FCCF0895CF93DF9300D000D00F92CDB74D
:10229000DEB70F900F900F900F900F90DF91CF91BE
:1022A0000895CF93DF9300D000D000D0CDB7DEB734
:1022B00026960FB6F894DEBF0FBECDBFDF91CF914B
:1022C00008951F93CF93DF93E091970116E08091DB
:1022D00098018E1304C0DF91CF911F910895CE2FE6
:1022E000D0E01E9FF0011124E756FE4F408151813E
:1022F00062817381848195810E945111FE01319622
:10230000E770E5CF4091C9015091CA016091CB01BE
:102310007091CC018091CD019091CE010C9451111E
:102320001F93CF93DF938091CE01807FC1F4809182
:10233000CB018823A1F080919701C0919801609111
:10234000C9017091CA014091CC015091CD01D62FA5
:10235000D723DA01A095B09516E0C81304C0DF9129
:10236000CF911F91089590E04115510511F0DF3F85
:1023700031F401968770F1CF2A0F3B1F17C0189FC9
:10238000F001199FF00D1124E756FE4F218127130C
:10239000F0CF20812613EDCF22812111EACF2381B6
:1023A00034812417350740F3241B350B283C3105B5
:1023B00000F72091CE012F7020612093CE0126E0FE
:1023C000289FF001299FF00D1124E256FE4F8081D5
:1023D0008F708061808389EC91E00E94D510DF913D
:1023E000CF911F910C9461119F92AF92BF92CF92A7
:1023F000DF92EF92FF920F931F93CF93DF93CDB7AE
:10240000DEB72B970FB6F894DEBF0FBECDBF8C01A1
:1024100085E0F801DE01179601900D928A95E1F7AB
:10242000D8014C9111965C9111971296EC901297ED
:102430008091CC019091CD01009709F46BC120915E
:10244000C9013091CA01632F62236F3F09F462C151
:102450001396CD90DC909090CB01992009F4F8C0B0
:10246000C816D90608F43FC0F601E81BF90BCF01E6
:10247000FF24F394883C910508F0F12C89ECA82EF8
:1024800081E0B82E8091CE01982F907FFF2009F433
:10249000B7C0911180C0FE2C35132AC0241328C068
:1024A000E11026C08F7080618093CE010E9482115E
:1024B000C5010E94D5108091CE01D80115968C934C
:1024C0008F2D2B960FB6F894DEBF0FBECDBFDF91D8
:1024D000CF911F910F91FF90EF90DF90CF90BF9021
:1024E000AF909F900895809590958C0D9D1DC0CFC5
:1024F000CD2829F0842F85238F3F09F019C180E072
:10250000B82FB170DB2EE09197012091980136E051
:1025100080FD1CC0EE20A1F28091CE0181608093ED
:10252000CE01F12CCDCF8E2F90E03E9FF0011124F3
:10253000E756FE4F6181651306C06081641303C0D6
:1025400062816E11E7CFFC013196E770E213EBCFA9
:102550004F8358878F8198850E94DA16292F2295FC
:102560002F70903260F0225F2F70223078F49F70CD
:1025700051F0F8019581907F31F4D12C0AC09F7001
:1025800011F08823D1F3805E8830B8F3C8010E942F
:10259000D510FD2C95CF351306C0241304C0D801E7
:1025A000EE2009F47BC04F8358878F8198850E9465
:1025B0001711882309F4B8C0EE2009F4B5C0809142
:1025C000CE01803270F02091C9013091CA013A8366
:1025D00029831B82DD82CC828E83CE0101960E94EC
:1025E000D51086E0F801A9ECB1E001900D928A9532
:1025F000E1F70E9490110E948211FF24F39460CFB2
:10260000911113C07C2DDB86CA866E2D8B850E94AE
:10261000421189EC91E00E94D51086E0F5011192FB
:102620008A95E9F70E9482114BCF3513BCCF241352
:10263000BACFE110B8CFD80115968C93C8010E948B
:10264000D51086E0F50111928A95E9F7F92C38CF7B
:10265000C816D90688F1B601681B790BCB01F12C9D
:10266000883C910508F047C0FE2CEE2009F45CC0C0
:10267000351330C024132EC08091CE0180FD21C0BF
:10268000982F907FF1F0D80115968C931597903F75
:1026900039F0982F907F905F8F70892B15968C93CF
:1026A000C8010E94D51086E0F801A9ECB1E00190C4
:1026B0000D928A95E1F7B6CF809590958C0D9D1D72
:1026C000CECF86E0F801A9ECB1E001900D928A9599
:1026D000E1F7F6CE4F8358878F8198850E941711B6
:1026E00081117FCF8091CE0181608093CE01C8019E
:1026F0000E94D510E5CE7C2DDB86CA866E2D8B859B
:102700000E94421186E0E9ECF1E0DF011D928A951A
:10271000E9F788CFEE2041F04F8358878F81988565
:102720000E94171181115DCFC8010E94D51065CF9D
:1027300081E08E25E5CE1F93CF93DF93CDB7DEB733
:102740002C970FB6F894DEBF0FBECDBF4F835887CE
:1027500069877A878B879C87CE0107960E94F41140
:10276000882369F08A859B85892B39F04F815885AC
:10277000842F85238F3F09F071C016E05FC086E08B
:10278000FE013796DE01119601900D928A95E1F7D0
:102790008A859B85892B89F388859F8189238F3F33
:1027A00061F32091980130E0C90101968770992763
:1027B000409197014817190671F40E941311109265
:1027C00098011092970186E0E9ECF1E0DF011D929B
:1027D0008A95E9F7D2CF96E0929FD001939FB00DF2
:1027E0001124A756BE4FFE01319601900D929A9585
:1027F000E1F7809398010E946111BFCF819FC001D2
:10280000112487569E4F0E94F4118823E9F0E0912D
:1028100097011E9FF0011124E756FE4F4081518120
:1028200062817381848195810E9451118091970109
:1028300090E0019687709927809397018091970186
:10284000909198018913DACF2C960FB6F894DEBFD9
:102850000FBECDBFDF91CF911F91089569857A8515
:102860008B859C850E94511188CFEF92FF920F9328
:102870001F93CF93DF938C01892B89F0F12CEE24E9
:10288000E394E8012196F8018491843709F457C054
:10289000A0F4823009F43EC048F48130D1F0DF91D9
:1028A000CF911F910F91FF90EF9008959CEF980F9B
:1028B0009037A8F70E944D0D0AC0853709F44CC027
:1028C0009CE7980F903758F78F770E94290E8E015A
:1028D00016C00E5F1F4FFE01849190E2980F983052
:1028E00060F48770FE2D01C0FF0F8A95EAF78F2FE5
:1028F0000E94E3170E940A1802C00E944D0D8F2DFE
:10290000815008F4BECFEFE9FFE03197F1F700C046
:102910000000F6CF0E5F1F4FFE01849190E2980FEA
:10292000983050F48770FE2D01C0FF0F8A95EAF7AA
:102930008F2F0E94E917DECF0E94290EE0CF0E5F95
:102940001F4FFE01C491C150D0F28FE99FE0019763
:10295000F1F700C00000F7CF0E5F1F4FFE01F490AB
:10296000CECF089560930A0270930B0280930C02FD
:1029700090930D020C94FF10CF93DF9300D000D002
:10298000CDB7DEB769837A838B839C8380910A02FB
:1029900090910B02A0910C02B0910D0229813A8115
:1029A0004B815C81822B932BA42BB52B80930A0245
:1029B00090930B02A0930C02B0930D020F900F9016
:1029C0000F900F90DF91CF910C94FF10CF93DF9376
:1029D00000D000D0CDB7DEB769837A838B839C8328
:1029E00080910A0290910B02A0910C02B0910D020D
:1029F00029813A814B815C8182239323A423B523CF
:102A000080930A0290930B02A0930C02B0930D02E4
:102A10000F900F900F900F90DF91CF910C94FF10BB
:102A2000CF93DF9300D000D0CDB7DEB769837A8330
:102A30008B839C8380910A0290910B02A0910C02DF
:102A4000B0910D0229813A814B815C8182279327C5
:102A5000A427B52780930A0290930B02A0930C023F
:102A6000B0930D020F900F900F900F90DF91CF91C8
:102A70000C94FF10109206021092070210920802A6
:102A8000109209020C94FF1041E050E060E070E009
:102A900004C0440F551F661F771F8A95D2F74093D5
:102AA00006025093070260930802709309020C9487
:102AB000FF10282F81E090E0A0E0B0E004C0880F74
:102AC000991FAA1FBB1F2A95D2F740910602509169
:102AD00007026091080270910902842B952BA62BA6
:102AE000B72B8093060290930702A0930802B0933D
:102AF00009020C94FF1041E050E060E070E004C077
:102B0000440F551F661F771F8A95D2F74095509541
:102B1000609570958091060290910702A09108023D
:102B2000B091090284239523A623B723809306023C
:102B300090930702A0930802B09309020C94FF102F
:102B4000282F81E090E0A0E0B0E004C0880F991F3A
:102B5000AA1FBB1F2A95D2F7409106025091070287
:102B6000609108027091090284279527A627B7274C
:102B70008093060290930702A0930802B093090283
:102B80000C94FF10CF93DF9300D000D0CDB7DEB709
:102B900069837A838B839C838091060290910702DC
:102BA000A0910802B091090229813A814B815C8190
:102BB000822B932BA42BB52B8093060290930702B4
:102BC000A0930802B09309020F900F900F900F90FE
:102BD000DF91CF910C94FF10CF93DF9300D000D002
:102BE000CDB7DEB769837A838B839C83809106029D
:102BF00090910702A0910802B091090229813A81BF
:102C00004B815C8182239323A423B5238093060206
:102C100090930702A0930802B09309020F900F90BF
:102C20000F900F90DF91CF910C94FF10CF93DF9313
:102C300000D000D0CDB7DEB769837A838B839C83C5
:102C40008091060290910702A0910802B0910902BA
:102C500029813A814B815C8182279327A427B5275C
:102C60008093060290930702A0930802B093090292
:102C70000F900F900F900F90DF91CF910C94FF1059
:102C80000895E82F21E1929FE00D11248E2F877087
:102C900041E001C0440F8A95EAF7E695E695E6958E
:102CA00085E0E89FF0011124E153FE4F30E020E081
:102CB00070E05191DF011197CB01022E02C0969571
:102CC00087950A94E2F7817081958527842385276B
:102CD0008C932F5F3F4F2530310559F70895E82F2A
:102CE00021E1929FE00D11249E2F9770E695E695C5
:102CF000E69585E0E89FF0011124E153FE4F50E096
:102D000040E080E0219130E0092E02C03695279501
:102D10000A94E2F721703327042E01C0220F0A948F
:102D2000EAF7822B4F5F5F4F4530510559F7089501
:102D3000BF92CF92DF92EF92FF920F931F93CF93A8
:102D4000DF938C01C0900602D0900702E090080249
:102D5000F090090280910A0290910B02A0910C025E
:102D6000B0910D02C82AD92AEA2AFB2ACFE1D0E085
:102D7000BC2ED701C6010C2E04C0B695A795979519
:102D800087950A94D2F780FD0EC0219788F7B12C61
:102D90008B2DDF91CF911F910F91FF90EF90DF90DE
:102DA000CF90BF900895B8018C2F0E9438080197EA
:102DB00061F3EECFCF93DF93D82FC92F0E949816DF
:102DC0006D2F7C2FDF91CF910C9438081F93CF93F8
:102DD000DF93162FD72F90919601992339F0862FE4
:102DE000972FDF91CF911F910C94DA16882391F0E1
:102DF000862F972F0E949816C82F682F812F9D2FFE
:102E00000E944116612F7D2F8C2FDF91CF911F9152
:102E10000C943808862F972F0E946F16C82FF2CF78
:102E200080910E02859585958595089580910E0275
:102E30008770089598E0899F90011124622B609318
:102E40000E020C94591590910E028095892380935F
:102E50000E02282F277061F4282F082E000C330B48
:102E60009217130629F08595859585950C947B1509
:102E7000089590910E02977081E009F480E0089522
:102E8000909112019923E1F09091640297FF18C08C
:102E9000E82FE695E695E695EF3139F120910001AE
:102EA00030910101E20FF32FF11D877021E030E036
:102EB00001C0220F8A95EAF78181822B81830895D0
:102EC0002091000130910101F90132969FEF40E01D
:102ED0005191851751F09F3F19F4511101C0942F62
:102EE0004F5F4E31A9F79F3F09F40895290F311D17
:102EF00097FD3A95F90182830895909112019923E3
:102F000001F19091640297FF1CC0E82FE695E695C9
:102F1000E695EF3139F12091000130910101E20F86
:102F2000F32FF11D877021E030E0A90102C0440FAA
:102F3000551F8A95E2F7CA01809591818923818383
:102F400008952091000130910101F9013296205E2F
:102F50003F4F9191891303C0DF0111971C92E21733
:102F6000F307B9F7089581E090E0E0910001F09156
:102F70000101E80FF91F1082019680329105A9F72F
:102F8000089590913202982B909332020895982FD1
:102F90009095809132028923809332020895109295
:102FA0003202089590913102982B90933102089546
:102FB000982F909580913102892380933102089552
:102FC00010923102089590913002982B9093300224
:102FD0000895982F90958091300289238093300234
:102FE000089510923002089580930F020895109270
:102FF0000F0208952091000130910101F9013196ED
:10300000205E3F4F80E0919191118F5FE217F307AF
:10301000D1F70895E0910001F09101018091320211
:103020008083E0910001F091010180819091310253
:10303000892B8083E0910001F091010180819091C2
:103040003002892B808390910F02992361F0E091E7
:103050000001F09101018081892B80830E94FA1781
:10306000811110920F0280910001909101010C9446
:103070000A0C6DEE7EEF90E080E00E94C02560E0DB
:1030800082E090E00E94AE2560E083E090E00E9444
:10309000AE2560E084E090E00E94AE2560E085E02F
:1030A00090E00C94AE2590E080E00E94A8259C0161
:1030B00081E02D3E3E4F09F080E0089582E090E0EF
:1030C0000C94A025682F82E090E00C94AE2583E05C
:1030D00090E00C94A025682F83E090E00C94AE253E
:1030E00084E090E00C94A025682F84E090E00C949C
:1030F000AE2580916A02843039F11092340288E161
:1031000090E020E40FB6F894A895809360000FBE7D
:103110002093600080E00E94190883B7817F84605B
:1031200083BF83B7816083BF7894889583B78E7F90
:1031300083BF0FB6F894A895809160008861809352
:103140006000109260000FBE089508950895CF9317
:10315000DF9300D000D00F92CDB7DEB70E94A51844
:103160000E94C70A0E94A6181D828D810E94DF0B53
:10317000672B682B692B71F48D818F5F8D83853070
:10318000A1F780E00F900F900F900F900F90DF91BC
:10319000CF91089581E0F6CF0E9413110E94FE0B9B
:1031A0000C9419081F921FB61F9211248F939F939E
:1031B000AF93BF9380913402811113C0809160025C
:1031C00090916102A0916202B09163024196A11DAB
:1031D000B11D8093600290936102A0936202B0934C
:1031E0006302BF91AF919F918F911F901FBE1F905F
:1031F000189582E084BD93E095BD9AEF97BD8093CA
:103200006E0008952FB7F89480916002909161024A
:10321000A0916202B09163022FBF0895CF92DF9216
:10322000EF92FF929C014FB7F894809160029091C9
:103230006102A0916202B09163024FBF6C017D01F7
:10324000EE24FF24A90170E060E0C416D506E6066E
:10325000F70638F0821B930BFF90EF90DF90CF9032
:1032600008950197F7CF1F921FB61F9211248F93D5
:103270009F93AF93BF938091600290916102A09160
:103280006202B09163020196A11DB11D809360029C
:1032900090936102A0936202B0936302BF91AF91D9
:1032A0009F918F911F901FBE1F9018950E944921DA
:1032B000F8942FEF87EA91E6215080409040E1F7A3
:1032C00000C0000087E090EBDC01809373029093D4
:1032D0007402A0937502B093760288E19CE00FB669
:1032E000F894A895809360000FBE90936000FFCF84
:1032F000AF92BF92CF92DF92EF92FF920F931F9304
:10330000CF93C0E0A82EB12C8C2F0E94DF0B6B0155
:103310007C0110E000E0D701C601002E04C0B69584
:10332000A795979587950A94D2F780FF13C0602FD1
:103330007C2F80E00E941C08A816B90659F481E091
:10334000CF911F910F91FF90EF90DF90CF90BF90A2
:10335000AF9008950F5F1F4F01311105E1F6CF5F68
:10336000C53091F680E0ECCFCF93C82F8CE20E945D
:103370007819882321F08C2FCF910C94781980E054
:10338000CF910895CF93DF9300D000D0CDB7DEB7B3
:103390000E945318811102C00E94391895E6998342
:1033A00008C00E94C70A8FE39CE90197F1F700C0AB
:1033B0000000A981A150A983A111F3CF89E20E9445
:1033C000B419811110C18AE20E94B41981110E94BE
:1033D000391885E00E94B41981110E9456190E9483
:1033E0005E188093330287E00E94B419882371F03D
:1033F0008BE10E94B419882309F4D1C09091330263
:10340000892F8D7F91FF82608093330280913302F8
:103410000E9462180E94701890E090936502809359
:10342000640280EE0E94B419882341F090916402F6
:10343000892F8E7F90FF81608093640289E30E94D0
:10344000B419882341F090916402892F8D7F91FFF8
:1034500082608093640282EE0E94B419882341F056
:1034600090916402892F8B7F92FF84608093640225
:1034700086EE0E94B419882341F090916402892F4E
:10348000877F93FF88608093640283EE0E94B41963
:10349000882341F090916402892F8F7E94FF806190
:1034A0008093640285E30E94B419882341F09091CF
:1034B0006402892F8F7D95FF80628093640281E38F
:1034C0000E94B419882341F090916402892F8F7B68
:1034D00096FF80648093640281E10E94B41988237E
:1034E00041F090916402892F97FB87F9805880936F
:1034F0006402809164020E94741887E20E94B419E9
:1035000089838EE10E94B419882319F0B981B260D1
:10351000B9838FE10E94B419882319F029812460AE
:10352000298380E20E94B419882319F03981386018
:10353000398381E20E94B419882319F049814061DE
:10354000498382E20E94B419882319F0598150629C
:10355000598383E20E94B419882319F08981806419
:10356000898384E20E94B4198823B1F1998190681B
:10357000998389810E946B183981232F30E050E0B4
:1035800040E029833A834B835C83CA01B9010F90E1
:103590000F900F900F90DF91CF910C94B2148EE0AA
:1035A0000E94B419882339F090913302892F8B7FC0
:1035B00092FF846029CF80E10E94B4199091330278
:1035C000882329F0892F877F93FF88601DCF892F5B
:1035D0008E7F90FF816018CFA981A111CACF0E9470
:1035E0006718282FCBCF0F900F900F900F90DF917F
:1035F000CF9108958091370280FF12C0609105013C
:1036000085E0689FB001112475956795759567955C
:1036100060387105A8F561157105A1F1862F08952F
:1036200081FF09C06091050185E0689FB001112408
:1036300075956795EDCF6091050182FD0AC0809177
:1036400038028823D1F09091040160910501891717
:1036500028F085E0689FB0011124DACF869FB00181
:10366000112485E0869F9001879F300D1124692FDA
:1036700070E0C9010E947225CBCF65E070E0CECF2B
:103680008FE7089581E008958091370280FF0CC094
:103690006091030170E07595679575956795611563
:1036A000710549F1862F089581FF06C060910301DD
:1036B00070E075956795F3CF6091030182FD0BC0B3
:1036C000909138029923A1F0609102018091030149
:1036D000961738F0682F70E06038710500F38FE7B7
:1036E0000895899FC001112470E00E947225F4CFD3
:1036F00061E070E0D7CF81E00895803F31F40E940F
:10370000FA1A819580933B020895813F19F40E9433
:10371000FA1AF8CF823F31F40E94FA1A8195809309
:103720003A020895833F19F40E94FA1AF8CF893FAC
:1037300029F40E94441B80933C0208958A3F21F49F
:103740000E94441B8195F7CF8B3F31F40E94441BAC
:10375000819580933D0208958C3F19F40E94441B8B
:10376000F8CF843F31F4809139028160809339022F
:103770000895853F21F4809139028260F7CF863F1A
:1037800021F4809139028460F1CF873F21F4809148
:1037900039028860EBCF883F21F480913902806143
:1037A000E5CF8D3F31F480913702816080933702FD
:1037B00008958E3F21F4809137028260F7CF8F3FCA
:1037C000B9F7809137028460F1CF90913A02803F3F
:1037D00041F480913B0287FD10923B02992371F0E6
:1037E0000895813F29F480913B021816ACF3F6CF7F
:1037F000823F81F497FFF2CF10923A0280913B0210
:1038000090913C02892B90913D02892B49F71092AF
:1038100038020895833F19F4191674F3DFCF893FF6
:1038200039F480913C021816CCF610923C02D6CFA7
:103830008A3F29F480913C0287FFD0CFF6CF8B3F9F
:1038400039F480913D0287FFC9CF10923D02C6CF67
:103850008C3F29F480913D021816BCF3BFCF843F02
:1038600031F4809139028E7F80933902B7CF853F42
:1038700021F4809139028D7FF7CF863F21F480912A
:1038800039028B7FF1CF873F21F480913902877F06
:10389000EBCF883F21F4809139028F7EE5CF8D3FB9
:1038A00031F4809137028E7F8093370297CF8E3F1D
:1038B00021F4809137028D7FF7CF8F3F09F08ECFB3
:1038C000809137028B7FF0CF89E392E00E94150C44
:1038D0000E940219909336028093350208951F9337
:1038E000CF93DF9300D000D000D0CDB7DEB780916A
:1038F0003502909136020E940E19AC018091380277
:103900002091060130E0811106C0209107019AE064
:10391000299F900111244217530788F020913A0201
:10392000A0913B02A98310913C02B0913D02BE835D
:1039300021110FC09A2F912B9B2B09F0B2C0269614
:103940000FB6F894DEBF0FBECDBFDF91CF911F91B0
:1039500008958F3F19F08F5F80933802121624F478
:103960000E94FA1A80933A0280913A0287FF05C0BA
:103970000E94FA1A819580933A022981121624F442
:103980000E94FA1A80933B0280913B0287FF05C098
:103990000E94FA1A819580933B0280913A02882313
:1039A00009F455C030913B023D83332309F44FC0E5
:1039B000282F880F330B440B550B29833A834B83F5
:1039C0005C83CA01B9010E94792423E333E343E312
:1039D0005FE369837A838B839C8369817A818B819E
:1039E0009C810E94DD2469837A838B839C83698117
:1039F0007A818B819C810E94412460933A028D815F
:103A0000082E000C990BAA0BBB0B89839A83AB83FE
:103A1000BC83BC01CD010E94792423E333E343E35B
:103A20005FE369837A838B839C8369817A818B814D
:103A30009C810E94DD2469837A838B839C836981C6
:103A40007A818B819C810E94412460933B021116F4
:103A500024F40E94441B80933C0280913C0287FF27
:103A600005C00E94441B819580933C029E811916DB
:103A700024F40E94441B80933D0280913D0287FF05
:103A800005C00E94441B819580933D0226960FB687
:103A9000F894DEBF0FBECDBFDF91CF911F910C9484
:103AA000641C8F3F09F057CF68CF85E0E9E3F2E06F
:103AB000DF011D928A95E9F71092380210923702C1
:103AC000089580915E020895CF93DF9300D00F9206
:103AD000CDB7DEB720916A02243019F523E029839F
:103AE0008A839B832093E9008FEF9091E8008150B7
:103AF00095FD06C095ED9A95F1F700008111F5CF7F
:103B00008091E80085FF0DC050E040E063E070E088
:103B1000CE0101960E94C11F8091E8008E778093AC
:103B2000E8000F900F900F90DF91CF910895CF9301
:103B3000DF9300D00F92CDB7DEB79C0180916A026F
:103B4000843031F582E08983205831093B832A8310
:103B500083E08093E9008FEF9091E800815095FD1C
:103B600006C095ED9A95F1F700008111F5CF80918F
:103B7000E80085FF0DC050E040E063E070E0CE015A
:103B800001960E94C11F8091E8008E778093E80023
:103B90000F900F900F90DF91CF91089520916A02BE
:103BA0002430F1F422E02093E9002FEF3091E80077
:103BB000215035FD06C035ED3A95F1F70000211191
:103BC000F5CF2091E80025FF0BC050E040E065E014
:103BD00070E00E94C11F8091E8008E778093E8001A
:103BE0000895CF93DF93D82FC92F80916A02843034
:103BF000F1F4909112019923E9F09091640297FFFA
:103C000019C08093E9008FEF9091E800815095FDF5
:103C100006C095E19A95F1F700008111F5CF8091EA
:103C2000E80050E040E060E270E085FD1AC0DF91FE
:103C3000CF91089581E08093E9008FEF9091E800A3
:103C4000815095FD06C095ED9A95F1F70000811120
:103C5000F5CF8091E80085FFEACF50E040E068E0D2
:103C600070E08D2F9C2F0E94C11F8091E8008E77FD
:103C70008093E80080E2ED2FFC2FAEE3B2E00190EC
:103C80000D928A95E1F7D3CF80916902811109C025
:103C90000E9449210E94A6218091E20084608093C5
:103CA000E2000895109269020895089508950C9411
:103CB000CC1842E061EC81E00E94C52042E061EC5A
:103CC00082E00E94C52042E061EC83E00E94C520B2
:103CD00042E261EC84E00C94C52080916C02893052
:103CE00089F148F4823009F494C0833009F44FC05C
:103CF000813041F008958A3009F47BC08B3009F49B
:103D000061C0089580916B02813A09F03FC08091B3
:103D1000E800877F8093E80080916F0290917002A5
:103D2000892B61F460E28EE392E070E00E94102043
:103D30008091E8008B778093E800089560E090E040
:103D400080E0F3CF80916B02813201F580916F02A8
:103D500090917002009711F00397C1F48091E800F0
:103D6000877F8093E8008091E80082FF0BC08091FC
:103D7000F10080935E028091E8008B778093E800E9
:103D80000C94F92080916A028111EDCF0895809101
:103D90006B02813AD9F780916F0290917002892B62
:103DA000A9F78091E800877F8093E8008091E80080
:103DB00080FFFCCF809112018093F1008091E80098
:103DC0008E77DCCF80916B02813201F780916F0298
:103DD00090917002892BD1F68091E800877F8093C3
:103DE000E8000E94F92080916D02809312010C94EA
:103DF000131180916B02813249F68091E800877F30
:103E00008093E8000E94F92080916E0280935F0207
:103E1000089580916B02813A09F0B8CF8091E80053
:103E2000877F8093E8008091E80080FFFCCF80913D
:103E30005F02C2CF84B7877F84BF0FB6F894A8957E
:103E400080916000886180936000109260000FBED6
:103E500080E880936100109261000E944D0C0E94E6
:103E600049210E94A6218091E20084608093E200B3
:103E700078940E9426240E944F0C88E091E00E94D2
:103E8000F90B80916A02853019F00E94550CF9CF28
:103E90000E94791880916802882399F30E94A718DC
:103EA000882379F30E94AB1FECCF9C01DA01892FA4
:103EB000992783309105C1F068F48130910509F4A8
:103EC00045C0029761F48DE690E02CE73BE02D932E
:103ED0003C93089581329105E1F0829739F190E0A9
:103EE00080E030E020E0F3CFC9019927213059F07C
:103EF0008230910559F0E8E7FBE0892B81F7849146
:103F000090E09F01E4CFE0E6FBE0F9CFECE4FBE0DA
:103F1000F6CF643020F7E62FF0E0EE0FFF1FEB5CEA
:103F2000FE4F2081318189E090E0D1CF6430B8F636
:103F300070E0FB01EE0FFF1FE35DFE4F208131813A
:103F4000675D7E4FFB01808190E0C1CF82E190E010
:103F500029EE3BE0BCCF80E189BD82E189BD09B497
:103F600000FEFDCF8091D8008F7D8093D800809196
:103F7000E00082608093E0008091E00081FDFCCF52
:103F80000895AF92BF92CF92DF92FF920F931F934B
:103F9000CF93DF936C01EB018A010E941821F82E68
:103FA000811123C00115110539F0F801808191813B
:103FB000C81BD90BC80ED91EB12CA12C2097A9F073
:103FC0008091E80085FD22C08091E8008E77809383
:103FD000E80001151105A1F0F80180819181A80E7A
:103FE000B91EB182A08285E0F82E8F2DDF91CF918E
:103FF0001F910F91FF90DF90CF90BF90AF900895E9
:104000000E9418218823D1F2F82EEFCFF60181917A
:104010006F018093F1002197FFEFAF1ABF0ACECF57
:10402000FC01CB01209171023091720226173707F3
:1040300090F0009729F42091E8002E772093E80073
:1040400040E0009751F4411108C08091E80082FFE0
:1040500031C080E00895C901F3CF20916A02222384
:10406000A9F12530A9F12091E80023FD2DC0209170
:10407000E80022FDEACF2091E80020FFE2CF309156
:10408000F3002091F200009719F02830310558F024
:1040900041E02830310509F040E02091E8002E771A
:1040A0002093E800CECF41914093F10001972F5F1C
:1040B0003F4FE9CF80916A02882341F0853041F07B
:1040C0008091E80083FFC1CF81E0089582E00895E8
:1040D00083E00895FC01CB012091710230917202BE
:1040E0002617370790F0009729F42091E8002E77E3
:1040F0002093E80040E0009751F4411108C08091FE
:10410000E80082FF32C080E00895C901F3CF20911A
:104110006A022223B1F12530B1F12091E80023FD9C
:104120002EC02091E80022FDEACF2091E80020FF78
:10413000E2CF3091F3002091F200009719F028307F
:10414000310558F041E02830310509F040E0209178
:10415000E8002E772093E800CECF44914093F10001
:10416000319601972F5F3F4FE8CF80916A028823F5
:1041700041F0853041F08091E80083FFC0CF81E0BD
:10418000089582E0089583E00895982F973028F0ED
:104190008F708093E90081E008959093E900242FC7
:1041A000762F50E0981731F07091EC002091ED00DF
:1041B0005091F00021FD02C09F5FE8CF3091EB00ED
:1041C0003E7F3093EB003091ED003D7F3093ED006A
:1041D0003091EB0031603093EB007093EC00209352
:1041E000ED005093F0002091EE0027FDE5CF80E038
:1041F000089580916B0287FF13C08091E80082FFD1
:1042000006C08091E8008B778093E80004C080911D
:104210006A028111F2CF089580916A028823D9F34E
:104220008091E80080FFF8CF8091E8008E77ECCF96
:104230002091E4003091E50095E6A9012091EC0081
:10424000822F817020FF06C08091E80080FF06C0A9
:1042500080E008952091E80022FD1AC080916A0252
:10426000882389F0853089F08091EB0085FD0FC0AF
:104270002091E4003091E50042175307F9F2915084
:10428000E1F684E0089582E0089583E0089581E0F6
:1042900008950E94B7210E94BF21E0EEF0E08081E6
:1042A00081608083E8EDF0E080818F77808319BCA6
:1042B000A7EDB0E08C918E7F8C9380818F7E808380
:1042C0001092690208950F931F93CF93DF930E947A
:1042D000B7210E94BF21C8EDD0E088818F77888305
:1042E00088818068888388818F7D888319BC10923B
:1042F0006A0210926602109268021092670200EE43
:1043000010E0F80180818B7F8083888181608883C1
:1043100042E060E080E00E94C520E1EEF0E08081B4
:104320008E7F8083E2EEF0E08081816080838081F7
:1043300088608083F80180818E7F8083888180619E
:104340008883DF91CF911F910F910895E8EDF0E000
:1043500080818F7E8083E7EDF0E0808181608083C3
:1043600084E082BF81E0809369020C946321E8EDD0
:10437000F0E080818E7F80831092E2000895109299
:10438000DA001092E10008951F920F920FB60F927B
:1043900011242F933F934F935F936F937F938F934A
:1043A0009F93AF93BF93EF93FF938091E10082FFC0
:1043B0000BC08091E20082FF07C08091E1008B7FFB
:1043C0008093E1000E9425248091DA0080FF19C0CB
:1043D0008091D80080FF15C08091DA008E7F809395
:1043E000DA008091D90080FF94C080E189BD82E12C
:1043F00089BD09B400FEFDCF81E080936A020E946E
:10440000441E8091E10080FF19C08091E20080FF8E
:1044100015C08091E2008E7F8093E2008091E200DF
:1044200080618093E2008091D80080628093D80000
:1044300019BC85E080936A020E94561E8091E100BB
:1044400084FF29C08091E20084FF25C080E189BDFE
:1044500082E189BD09B400FEFDCF8091D8008F7D37
:104460008093D8008091E1008F7E8093E10080915D
:10447000E2008F7E8093E2008091E2008160809371
:10448000E20080916602882309F449C084E08093A9
:104490006A020E94571E8091E10083FF29C080912B
:1044A000E20083FF25C08091E100877F8093E100D7
:1044B00082E080936A02109266028091E1008E7F12
:1044C0008093E1008091E2008E7F8093E2008091F2
:1044D000E20080618093E20042E060E080E00E94C0
:1044E000C5208091F00088608093F0000E94551EE6
:1044F000FF91EF91BF91AF919F918F917F916F91BC
:104500005F914F913F912F910F900FBE0F901F9091
:10451000189519BC10926A020E94521E72CF8091A7
:10452000E30087FD02C081E0B2CF83E0B0CF1F92ED
:104530000F920FB60F9211242F933F934F935F93D7
:104540006F937F938F939F93AF93BF93CF93DF939B
:10455000EF93FF93D091E900DF708091EC00C82FBA
:10456000C17080FDC0E81092E9008091F000877F63
:104570008093F00078940E94DB221092E9008091F1
:10458000F00088608093F000CD2BCF70C093E900DD
:10459000FF91EF91DF91CF91BF91AF919F918F915B
:1045A0007F916F915F914F913F912F910F900FBE2F
:1045B0000F901F9018951F93CF93DF93CDB7DEB761
:1045C000AA970FB6F894DEBF0FBECDBF8BE692E080
:1045D000FC0101962091F100208322E083379207AD
:1045E000B9F70E946D1E8091E80083FF16C180918B
:1045F0006B0290916C029A3008F00FC1E92FF0E045
:10460000E650FA4D0C948625803881F0823809F006
:1046100004C180916F028F708093E9008091EB005C
:1046200085FB882780F91092E90006C08091670217
:1046300090916802911182609091E800977F909329
:10464000E8008093F1001092F1008091E8008E77ED
:10465000E0C0882309F4CEC0823009F0DEC080912A
:104660006D028111D1C080916F028F7009F4D5C0A5
:104670008093E9002091EB0020FFC6C0933031F415
:104680008091EB0080628093EB00BEC09091EB00C4
:1046900090619093EB0021E030E001C0220F8A95F9
:1046A000EAF72093EA001092EA008091EB0088601C
:1046B000EACF8111B2C010916D021F778091E300A3
:1046C0008078812B8093E3008091E800877F80933E
:1046D000E8000E94F9208091E80080FFFCCF8091E3
:1046E000E30080688093E30082E0111183E080930F
:1046F0006A0293C08058823008F08FC080916D02AA
:1047000090916E028C3D23E09207A1F583E08A83AD
:104710008AE289834FB7F894DE01139620E03EE0E9
:1047200051E2E32FF0E050935700E49120FF03C0E3
:10473000E295EF703F5FEF708E2F90E0EA30C0F0AF
:10474000C7968D939D932F5F243159F74FBF80916A
:10475000E800877F8093E8006AE270E0CE0101966E
:104760000E9410208091E8008B778093E80055C06C
:10477000C096E7CFAE014F5F5F4F60916F020E941E
:10478000551FBC01892B09F448C08091E800877F40
:104790008093E80089819A810E946A20E3CF803863
:1047A000E1F58091E800877F8093E80080916602C0
:1047B0008093F1004ACF811130C090916D02923008
:1047C00060F58091E800877F8093E800909366020F
:1047D0000E94F92080916602882311F084E005C0D0
:1047E0008091E30087FDFACF81E080936A020E9406
:1047F000591E13C080916D02813079F481E09330AD
:1048000009F080E0809368021092E9008091E8004E
:10481000877F8093E8000E94F9208091E80083FF61
:104820000AC08091E800877F8093E8008091EB00C8
:1048300080628093EB00AA960FB6F894DEBF0FBE9D
:10484000CDBFDF91CF911F9108950895CF938091AF
:104850006A028823A1F0C091E900CF709091EC002A
:10486000892F817090FD80E8C82B1092E90080911B
:10487000E80083FD0E94DB22CF70C093E900CF9156
:1048800008950E9448246894B1110C94D724089587
:104890000E94BC2488F09F5798F0B92F9927B751F0
:1048A000B0F0E1F0660F771F881F991F1AF0BA95D4
:1048B000C9F714C0B13091F00E94D624B1E0089538
:1048C0000C94D624672F782F8827B85F39F0B93F2A
:1048D000CCF3869577956795B395D9F73EF4909587
:1048E0008095709561957F4F8F4F9F4F0895E89405
:1048F00009C097FB3EF490958095709561957F4F28
:104900008F4F9F4F9923A9F0F92F96E9BB279395D5
:10491000F695879577956795B795F111F8CFFAF4E5
:10492000BB0F11F460FF1BC06F5F7F4F8F4F9F4F16
:1049300016C0882311F096E911C0772321F09EE874
:10494000872F762F05C0662371F096E8862F70E0DA
:1049500060E02AF09A95660F771F881FDAF7880FB4
:104960009695879597F9089557FD9058440F551FD0
:1049700059F05F3F71F04795880F97FB991F61F0E1
:104980009F3F79F087950895121613061406551F58
:10499000F2CF4695F1DF08C0161617061806991FC4
:1049A000F1CF86957105610508940895E894BB27B9
:1049B00066277727CB0197F908950E94F0240C947D
:1049C00061250E94532538F00E945A2520F0952336
:1049D00011F00C944A250C94502511240C94D724E2
:1049E0000E94B42470F3959FC1F3950F50E0551FBA
:1049F000629FF001729FBB27F00DB11D639FAA2734
:104A0000F00DB11DAA1F649F6627B00DA11D661F82
:104A1000829F2227B00DA11D621F739FB00DA11DA3
:104A2000621F839FA00D611D221F749F3327A00D5D
:104A3000611D231F849F600D211D822F762F6A2FF9
:104A400011249F5750409AF0F1F088234AF0EE0F5E
:104A5000FF1FBB1F661F771F881F91505040A9F78B
:104A60009E3F510580F00C944A250C94D7245F3F5B
:104A7000E4F3983ED4F3869577956795B795F795C7
:104A8000E7959F5FC1F7FE2B880F911D969587953F
:104A900097F9089597F99F6780E870E060E00895BE
:104AA0009FEF80EC089500240A9416161706180646
:104AB0000906089500240A94121613061406050622
:104AC0000895092E0394000C11F4882352F0BB0FB3
:104AD00040F4BF2B11F460FF04C06F5F7F4F8F4F16
:104AE0009F4F089597FB072E16F4009407D077FD8B
:104AF00009D00E948C2507FC05D03EF49095819545
:104B00009F4F0895709561957F4F0895EE0FFF1F99
:104B10000590F491E02D0994AA1BBB1B51E107C03D
:104B2000AA1FBB1FA617B70710F0A61BB70B881F3D
:104B3000991F5A95A9F780959095BC01CD010895CC
:104B4000F999FECF92BD81BDF89A992780B5089555
:104B5000A8E1B0E042E050E00C94C825262FF99976
:104B6000FECF92BD81BDF89A019700B4021639F0CC
:104B70001FBA20BD0FB6F894FA9AF99A0FBE08959D
:104B80000196272F0E94AF250C94AE25DC01CB01A6
:104B9000FC01F999FECF06C0F2BDE1BDF89A31964D
:104BA00000B40D9241505040B8F70895F894FFCFEB
:104BB00084079007940798079C07A007A407A807F5
:104BC000AC07B007B407B807BC07C007C407C807DD
:104BD000CC07D007BE0EBE0E160F160F5A0F760F5B
:104BE000EE0EEE0E810FEE0E49104910B410EE0ECF
:104BF000EE0EBD10042329230D2429230D2459234F
:084C00007A230D24CF23DB23EE
:104C080010022808140A321E611DF11DCE1D971DC1
:104C1800641D0130313233343536376667909192EE
:104C280093949597F0F1F4F5F6404D3639B70C6A40
:0E4C38000C340CFB0B8E0BA70BC00BD90B0022
:00000001FF
